:020000040000FA
:1000000090130010B5010000BD010000BF01000009
:10001000C1010000C3010000C50100000000000094
:10002000000000000000000000000000C701000008
:10003000C901000000000000CB0100000B0500001A
:10004000CF010000CF010000CF010000CF01000070
:10005000CF010000CF010000CF010000CF01000060
:10006000CF010000CF010000CF010000CF01000050
:10007000CF010000CF010000CF010000CF01000040
:10008000CF010000CF010000CF010000CF01000030
:10009000CF010000CF010000CF010000CF01000020
:1000A000B9080000CF010000CF010000CF0100001F
:1000B000CF010000CF010000CF010000CF01000000
:1000C000CF010000CF010000CF01000000F002F8D6
:1000D00000F044F80AA090E8000C82448344AAF19E
:1000E0000107DA4501D100F039F8AFF2090EBAE89C
:1000F0000F0013F0010F18BFFB1A43F0010318475C
:10010000E868000008690000103A24BF78C878C188
:10011000FAD8520724BF30C830C144BF04680C600D
:10012000704700000023002400250026103A28BF55
:1001300078C1FBD8520728BF30C148BF0B60704759
:10014000632902F01281732902F0178100207047A1
:100150001FB502F020F81FBD10B510BD02F043F925
:100160001146FFF7F5FF00F01EFA02F061F903B443
:10017000FFF7F2FF03BC00F078F8000000BF704703
:100180000B49D1F800C04A685CF8043B1068184479
:1001900042F8040B8C4528BFA1F1DC0C8A4228BF31
:1001A000A1F1DC02C1F800C04A6020F000407047B5
:1001B000240300100948804709480047FEE7FEE78E
:1001C000FEE7FEE7FEE7FEE7FEE7FEE7FEE7FEE707
:1001D00004480549054A064B70470000C303000068
:1001E000CD0000009003001090130010900B001041
:1001F000900B001070B51D4C0546002120680A2D9B
:100200000DD00D2D1ED02146082D89681CD04A1C0A
:10021000A260EBB2002200F066FF284670BD401CD1
:10022000A16020606268521C6260282800DB2160A7
:10023000282AF2DB082000F0F7FF0021206800F0F8
:1002400085FFEAE7A160E8E70029E6D0491EF9E763
:100250000021084603F0E0BFCCE70021084603F088
:10026000DBBF4FF0FF307047C4E7FEE71C00001013
:100270000FB41CB5084B06AA7B446946009005984C
:1002800002F051F804460020694602F05FF820466B
:100290001CBC5DF814FB0000D120000070B50C46BA
:1002A0000546012A05D02878800600D5EA69002392
:1002B00002E0012305E05B1C934202D2E05C0028CF
:1002C000F9D1A869E618C01AA861286A18442862FA
:1002D0002846AFF3008004E0D5E9012114F8010BB2
:1002E0009047B442F8D32846AFF3008070BD704702
:1002F00070477047004870472C030010FFFFFFFF56
:1003000070B5604CD4F888005F4D6FEA10608007CC
:10031000D4F80C0100F003000CD028B1012841D022
:10032000022845D003282ED1D4F804015749C0B281
:10033000401C43E0002128B101280ED0022823D020
:10034000032820D154F8880FC0F307422068521CBC
:10035000C0F30E00401C4E4909E054F8880FC0F36A
:1003600007422068521CC0F30E004A49401CA0FB03
:100370000101002301F0BCFDE26F0023D2B2521C48
:1003800001F0B6FD286070BD54F8880FC0F3074235
:100390002068521CC0F30E00401C090441EA1041C1
:1003A0000004E6E7D4F804013B49C0B2401C05E074
:1003B000D4F804014FF40041C0B2401CB1FBF0F08E
:1003C000E0E770B52F482021C0F8A011D0F8A011A7
:1003D000890603D5D0F8A0114906FBD500F18000AD
:1003E0000325C0F884504FF00003C0F82831C0F84E
:1003F0002C314FF00104C0F88C40284941604FF087
:10040000AA02C2604FF05501C1600460C260C160C1
:10041000A0F18000D0F888607601FBD540F8805FBD
:10042000C260C160B0F18000D0F88860C6F3016698
:10043000032EF9D100F1A00023264660C260C160FE
:100440000460C260C160A0F1A00000BFD0F8A84065
:100450006405FBD540F8A05FC260C160B0F1A000A8
:10046000D0F8A810C1F301210329F9D10C49C0F833
:10047000C410C0F8C831016821F4704141F48041D2
:10048000016070BD00C00F400000001000093D0079
:1004900000127A0000366E01001BB70063000500F1
:1004A000DE972804002100EB800000E0491CB1EB3E
:1004B000400FFBD3704700B5024640F2E63303E03D
:1004C000521E1846FFF7EEFF002AF9D100BD9848EA
:1004D000416821F440214160416841F4802141603C
:1004E0009448016841F48051016094499248086041
:1004F00070479248016841F08071016041680029AD
:10050000FCDA4068C0F30B10704770B58C4C206863
:10051000002510B100F0F2F825608948103002780B
:100520001AB9417809B9418821B141884B1E4380ED
:1005300029B10FE0E0682061A06820600AE040F285
:10054000E731418041784B1E437019B93B2141701E
:10055000521E02707A4A1C329088401C80B29080F1
:10056000B0F57A7F15D195809078401CC0B290701C
:100570003C280ED195705078401CC0B250703C2879
:1005800007D155701078401CC0B21070182800D1E7
:100590001570206810B96068002803D0FFF7A9FF24
:1005A000D080656070BD8AB0002401208DF82400E1
:1005B00064480594069407940894D0E90012806872
:1005C0000291CDE9032060484FF47A71022500685A
:1005D0002646B0FBF1F0401EB0F1807F08D24FF00C
:1005E000E0214861594AF82010708C6107200861A9
:1005F00000F0C8FE01F008F8002003F0A5FE504806
:100600008460846144610020514AFF2102F8301067
:10061000401C1428FAD14F4F0024002003F018FD8D
:100620000021084603F068FE10B9641CBC42F4DBEC
:10063000FFF7A6FD062490FBF4F104FB110002AFC6
:1006400037F8100001F0EBF9FFF79AFD90FBF4F199
:1006500004FB11004FF4967337F810000090DC2271
:100660006421142001F0F9F9002003F0F1FC0021CD
:10067000084603F041FEC4B2AC420CD03CB10021AC
:10068000012309AA084603F0ABFD33A000E037A020
:1006900000F09AFE2546FFF7DBFDC2B2FF2A2BD001
:1006A0000D2A00D10A22C6B1134605AA36A110466A
:1006B000FFF7DEFD05A800F087FEBDF8080001F099
:1006C000AEF905A91020CDE9000100214FF4C8734F
:1006D000F022084601F0B2FAC6E7202A07D01346F6
:1006E00005AA29A11046FFF7C3FD0126E2E728A1CC
:1006F00005A8FFF7BDFDF8E70026B5E71048144A46
:10070000416902EBC102491C4161C1691160016A82
:10071000516042690021142A00D14161D0E90532BB
:10072000934204D1521C8261142A00D18161704726
:1007300000C00240C4C00F40040420000040034039
:10074000280000108C4500000000001023ED00E0A0
:100750009801001040420F000A50726573732041E7
:10076000204B6579202E2E2E0A0000000A436F6E62
:100770006E65637420746865204B6579626F617281
:1007800064202E2E2E0A0000257325630000000031
:100790002563000001210160802141604FF47A71DE
:1007A00081604649C1607047400308E000BF00BF58
:1007B00000BF00BF00BF00BF00BF00BF00BF401EA2
:1007C000F4D270473E4A815070473D4940587047C7
:1007D0003C493D4A78B1486820F07050486048680C
:1007E00040F0A0504860C8681040C860C868374AE8
:1007F0001043C86006E0C8681040C860486820F030
:1008000070504860012070472DE9F041314D304C67
:100810002B4E2F1D18B394222F49002003F026FEE3
:10082000002839D054F8C40F40F0004020602868F8
:1008300040F019002860642019213A6831EA020268
:1008400003D0002828D0401EF7E7D6F8100140F06A
:100850000300C6F810012149002008701BE0D6F8FB
:10086000100120F00300C6F81001286820F01900DC
:1008700028603968642011F0190F07D001E00028C2
:100880000AD03968401E11F0190FF8D154F8C40F7E
:1008900020F0004020600120BDE8F0810120704779
:1008A0004FF080724FF0E02110B1C1F8002101E05B
:1008B000C1F880210120704702F030BE40420F0095
:1008C00000C0005000C002400FCF3FFF90208000CA
:1008D00000C00F40F4CF00504001082018E400E0B1
:1008E0002DE9F05FFF4D83460026286888460129E0
:1008F0001ED020F40070286007244FF001094FF447
:10090000007A8027EF61012000F0B8FCB8F1010FF8
:1009100011D06869C0F34020A0403043C6B2AF6137
:10092000012000F0ABFC641EECD53046BDE8F09F22
:1009300040F40070DFE709FA04F010EA0B0F5046AC
:1009400001D0A861EBE7E861E9E72DE9F041E6486D
:10095000016841F4806140F8E41B016841F4001132
:100960000160E248416A21F070614162DD4DD5F8D5
:10097000801041F04051C5F880104FF00051C5F88B
:100980009810296841F0400129604026AE61016855
:1009900021F47C210160016841F428210160D448E0
:1009A00040F2C711016002210161416000F0B2FC18
:1009B000040015D100F06EFCEE61732000F062FCC3
:1009C000002000F05FFC002000F05CFC4FF6FF719F
:1009D00001EA0027002000F055FC40EA0704AE6160
:1009E000C448472C7DD0002101704FF48071012054
:1009F00000F088FC4FF4E061022000F083FC00214D
:100A0000042000F07FFC40F20721082000F07AFC6F
:100A10000021092000F076FC00210A2000F072FC81
:100A200000210C2000F06EFC00210D2000F06AFC7B
:100A300000210F2000F066FC0021102000F062FC75
:100A40000021112000F05EFC0021122000F05AFC71
:100A50000021132000F056FC142000F00FFC41F29E
:100A6000B021102000F04EFC0721112000F04AFCBC
:100A7000052000F003FC40F2BD11122000F042FC02
:100A8000052000F0FBFB4FF4A051132000F03AFCCE
:100A90000E21292000F036FC052000F0EFFB00219C
:100AA000202000F02FFC0021212000F02BFCA4F5D9
:100AB000A840083840F207667ED0A0F57C501D386B
:100AC00040F2077779D00621302000F01BFC40F27D
:100AD0000111312000F016FC0321322000F012FC3D
:100AE00000E01DE04FF48371352000F00BFC40F670
:100AF0000231362000F006FC40F20231372000F0CF
:100B000001FC3946382000F0FDFB0721392000F0B8
:100B1000F9FBF11F3C2000F0F5FB40F20B2187E1CF
:100B2000012101700021EA2000F0ECFB2021EB20E4
:100B300000F0E8FB0C21EC2000F0E4FBC721ED20E5
:100B400000F0E0FB3821E82000F0DCFB1021E92078
:100B500000F0D8FB0121F12000F0D4FB1021F2209D
:100B600000F0D0FB0121402000F0CCFB002141200F
:100B700000F0C8FB0021422000F0C4FB10214320FC
:100B800000F0C0FB0E21442000F0BCFB24214520D6
:100B900000F0B8FB0421462000F0B4FB50214720B0
:100BA00000F0B0FB0221482000F0ACFB13214920EB
:100BB00000F0A8FB192101E0C4E011E14A2000F097
:100BC000A1FB19214B2000F09DFB16214C2000F0C9
:100BD00099FB1B21502000F095FB3121512000F0A2
:100BE00091FB2F21522000F08DFB3F21532000F07C
:100BF00089FB3F21542000F085FB3E21552000F069
:100C000081FB2F21562000F07DFB7B21572000F037
:100C100079FB0921582000F075FB0621592000F0CE
:100C200071FB06215A2000F06DFB0C215B2000F0C7
:100C300069FB1D215C2000F065FBCC215D2000F0EC
:100C400061FB1B21084600F05DFB01211A2000F02A
:100C500059FB2F21242000F055FB5721252000F0BF
:100C600051FB8821232000F04DFB3621182000F095
:100C700049FB0121192000F045FB0021012000F073
:100C800041FB88211F2000F03DFB142000F0F6FA04
:100C900082211F2000F036FB052000F0EFFA9221A0
:100CA0001F2000F02FFB052000F0E8FAD2211F20C2
:100CB00000F028FB052000F0E1FA5521172000F094
:100CC00021FB0021084600F01DFB11212F2000F020
:100CD00019FB0021312000F015FB0021322000F02B
:100CE00011FB09E000C00920C4C00F4000C0024051
:100CF000000003408C0000103821282000F002FB87
:100D0000142000F0BBFA3C21282000F0FBFA082157
:100D1000162000F0F7FA00210E2000F0F3FA00216F
:100D20000F2000F0EFFA0121102000F0EBFA402133
:100D3000112000F0E7FA0021122000F0E3FA002170
:100D40001320DAE040F60D31302000F0DBFA41F6F6
:100D50002311312000F0D6FA41F62641322000F06E
:100D6000D1FA42F21C61332000F0CCFA42F2194170
:100D7000342000F0C7FA40F60B51352000F0C2FADB
:100D800041F20601362000F0BDFA4FF4C26137206F
:100D900000F0B8FA40F20671382000F0B3FA4FF4D0
:100DA0004171392000F0AEFA40F605613A2000F0BA
:100DB000A9FA40F601613B2000F0A4FA4FF48771D4
:100DC0003C2000F09FFA40F20E513D2000F09AFACC
:100DD00040F203413E2000F095FA31463F2028E0E2
:100DE0000021302000F08EFA3146312000F08AFADE
:100DF00040F20531322000F085FA0021352000F064
:100E000081FA41F20461362000F07CFA4FF401715E
:100E1000372000F077FA0121382000F073FA3946C4
:100E2000392000F06FFA00213C2000F06BFA0F210E
:100E30003D2000F067FA0021502000F063FA40F2F4
:100E40003F11512000F05EFA0021522000F05AFAC2
:100E5000EF21532000F056FAA4F5A844083C06D030
:100E6000A4F57C541D3C02D04FF41C5101E04FF41A
:100E70002741602000F046FA0121612000F042FA8B
:100E800000216A2000F03EFA0021802000F03AFAAA
:100E90000021812000F036FA0021822000F032FA91
:100EA0000021832000F02EFA0021842000F02AFA8D
:100EB0000021852000F026FA1021902000F022FA6F
:100EC0000021922000F01EFA0321932000F01AFA6C
:100ED0004FF48871952000F015FA0021972000F05A
:100EE00011FA0021982000F00DFA41F230010320A0
:100EF00000F008FA40F23711072000F003FA4FF033
:100F00008050C5F89800BDE8F0812DE9F041074612
:100F1000F748BD180E460078CC1820B36D1E641E2D
:100F2000C7F30F21022000F0EDF9F9B2032000F021
:100F3000E9F9C5F30F21042000F0E4F9E9B2052036
:100F400000F0E0F9C6F30F21062000F0DBF9F1B262
:100F5000072000F0D7F9C4F30F21082000F0D2F9E0
:100F6000E1B2092017E0B9B2502000F0CBF96D1EB4
:100F7000A9B2512000F0C6F9B1B2522000F0C2F976
:100F8000641EA1B2532000F0BDF9B9B2202000F0D8
:100F9000B9F9B1B22120BDE8F04100F0B3B9F022B7
:100FA00000214FF4A0730846AFE770B50546D0485E
:100FB0000C46007810B3C5F30F210E46022000F056
:100FC000A1F9E9B2032000F09DF93146042000F0B8
:100FD00099F9E9B2052000F095F9C4F30F210D4607
:100FE000062000F08FF9E1B2072000F08BF92946C6
:100FF000082000F087F9E1B2092005E0A9B220201D
:1010000000F080F9A1B2212000F07CF9222000F04C
:1010100041F9B748801C4088BDE8704000F04AB9EB
:10102000B349891C48807047B149891C08807047C2
:1010300070B50646FFF7B3FF222000F02BF900F051
:1010400049F900244FF49635304600F048F9641C05
:10105000AC42F9D3A7494020886170BD2DE9F04723
:1010600098461546089CFFF750FF222000F012F921
:1010700000F030F99E49E81DC008891C012802D003
:10108000022816D02AE000278A460FE014F8019BB8
:10109000002608E029FA06F000F001013AF81100F4
:1010A00000F01DF9761CAE42F4D37F1C4745EDD30A
:1010B00014E000278A460FE034F8029B002608E07F
:1010C00029FA06F000F001013AF8110000F007F9E2
:1010D000761CAE42F4D37F1C4745EDD385494020B2
:1010E0008861BDE8F08738B5203BDBB28AB1012AC0
:1010F0000ED103EB4302804B00EB400003EB0212E6
:10110000C40008011823009210222146FFF7A6FF11
:1011100038BD7A4AC40002EBC30201EB4100400033
:10112000082300920622F0E72DE9F0411C461546FF
:101130000F46064606E03946641C7F1C2A463046A8
:10114000FFF7D1FF2378002BF5D1DCE630B58FB067
:101150000C460546FFF723FF00226846202114B104
:10116000012C08D10FE00023C1545B1CDBB2282BFB
:10117000FAD3184442706B46224600212846FFF7F6
:10118000D3FF0FB030BD0023C1545B1CDBB20F2B6B
:10119000FAD3EEE72DE9F0471446089A98466243E1
:1011A000960A2246FFF7B1FE222000F073F800F005
:1011B00091F8DFF83C91002509F10209671E0DE066
:1011C000002408E0B442484601D3008800E040888B
:1011D00000F085F8641CBC42F4D96D1C4545EFD382
:1011E0004449402088617CE72DE9F0411C461646C1
:1011F000069FFFF78AFE222000F04CF800F06AF804
:10120000641E74430AE0002505E0601937F81000F9
:1012100000F065F86D1CB542F7D3A41B002CF2DA80
:101220003449402088616EE610B5314CA16808440D
:101230004FF4A071A06001E0A0F5A0708842FBD23D
:10124000A060217861B10821012000F05BF8A0685E
:10125000C0F30F21142000F055F8217A152005E085
:1012600081B26A2000F04EF803216120BDE81040F1
:1012700000F048B800F00EB800F044B88004401EFA
:10128000FDD270471E498860C8684007FCD5886851
:10129000C0B2704770B5174D40240646EC6170200F
:1012A000FFF7F0FF0020FFF7EDFF3046FFF7EAFF02
:1012B000AC6170BD70B50F4E40250446F5617220DB
:1012C000FFF7E0FF200AFFF7DDFFE0B2FFF7DAFFEC
:1012D000B56170BD07494020C8617220D2E710B5E2
:1012E0000446000AFFF7CEFFE0B2BDE81040C9E7B0
:1012F0008C00001000C0092018490000984500002B
:101300000000034010B50C46FFF7C4FF2046BDE8BF
:101310001040CFE770B5194D286820F47C20286074
:10132000286C40F42A202864154C206840F0800086
:1013300020604026A6618020A061E6610121702026
:10134000FFF7CEFA01210020FFF7CAFAA661E66195
:1013500001217320FFF7C4FA00210846FFF7C0FA05
:10136000A661216821F080012160296841F42821CB
:101370002960296C21F47F21296470BD00C00240DE
:1013800000C009205E48016841F010010160016859
:1013900041F0400101605B4883210173002101712C
:1013A0009C21017003210173062101727047554988
:1013B0000A7D9206FCD5C0B2087070475148017D85
:1013C000C907FCD00078704700B5034602E05B1CFB
:1013D000FFF7EDFF18780028F9D100BD48480168F3
:1013E00041F480110160016841F4800101604648C8
:1013F000016841F08071016044488321017300213C
:1014000001719C2101700321017306210172704753
:101410003E490A7D9206FCD5C0B2087070473B4831
:10142000017DC907FCD00078704700B5034602E093
:101430005B1CFFF7EDFF18780028F9D100BD1CB543
:101440000A21B0FBF1F201FB12033033ADF8063094
:10145000B2FBF1F301FB13223032ADF80420642219
:10146000B0FBF2F2B2FBF1F301FB13223032ADF824
:1014700002204FF47A72B0FBF2F0B0FBF1F201FB04
:1014800012003030ADF8000000236C4634F8130031
:10149000FFF78DFF5B1CDBB2042BF7D31CBD1CB523
:1014A0000A21B0FBF1F201FB12033033ADF8063034
:1014B000B2FBF1F301FB13223032ADF804206422B9
:1014C000B0FBF2F2B2FBF1F301FB13223032ADF8C4
:1014D00002204FF47A72B0FBF2F0B0FBF1F201FBA4
:1014E00012003030ADF8000000236C4634F81300D1
:1014F000FFF78EFF5B1CDBB2042BF7D31CBD000093
:1015000000C0024000C00040C4C00F40008009403D
:10151000401EFDD2704770B5054642F2107606E0D7
:101520005FF00004FEF72AFE641CB442FADB6D1E75
:10153000F6D270BD70B5FF4C4FF00071E161091338
:10154000A16500F0BDFC2515E565FEF717FEA56554
:10155000BDE87040FEF712BE70B5F64C4FF000705B
:10156000A061FEF70BFE2015A0650601E665206C64
:1015700020F0FF002064206820F47F002060052018
:10158000401EFDD2606D61690006C1F3074545EA62
:101590001045206C40F0FF002064206840F47F007C
:1015A0002060FEF7EBFDA665FEF7E8FD284670BD5E
:1015B00010B500F085FCDF4A4FF40071D1650920B9
:1015C000401EFDD291650820401EFDD210BD70B5B1
:1015D000D84C4FF080560D46E663FFF7ABFF002274
:1015E000521EFDD24FF000712846A1610913A1657A
:1015F00000F066FC4FF40075E565FEF7BFFDA565DC
:10160000FEF7BCFDA66370BD70B5CA4C206C40F0FF
:10161000FF002064206840F47F002060206A40F0D2
:1016200080502062206840F000702060206C40F400
:1016300000702064206C40F4005020644FF080550E
:10164000A563E810A0610014A0650001A065E56332
:101650000020FFF76FFF0520401EFDD2FFF77CFF43
:10166000FFF77AFFA563B4495228088102D06528A4
:101670007ED069E102218320FFF7A9FF03218520A5
:10168000FFF7A5FF01218B20FFF7A1FF93218C20FD
:10169000FFF79DFF01219120FFF799FF0021832093
:1016A000FFF795FFB0213E20FFF791FF03213F2078
:1016B000FFF78DFF10214020FFF789FF56214120C1
:1016C000FFF785FF13214220FFF781FF46214320CA
:1016D000FFF77DFF23214420FFF779FF7621452086
:1016E000FFF775FF00214620FFF771FF5E214720BD
:1016F000FFF76DFF4F214820FFF769FF4021492088
:10170000FFF765FF91211720FFF761FFF9212B20DB
:10171000FFF75DFF0520FFF7FEFE14211B20FFF7FA
:1017200056FF11211A20FFF752FF06211C20FFF758
:101730004EFF42211F20FFF74AFF0320FFF7EBFE79
:101740000A211920FFF743FF1A211920FFF73FFF55
:101750000520FFF7E0FE12211920FFF738FF0520D2
:10176000FFF7D9FE27211E20FFF731FF0A2000E0F6
:1017700047E0FFF7D0FE60212420FFF728FF40213B
:101780003D20FFF724FF38213420FFF720FF3821C8
:101790003520FFF71CFF38212420FFF718FF0A200F
:1017A000FFF7B9FE3C212420FFF711FFC8211620C6
:1017B000FFF70DFF06210120FFF709FF002155204B
:1017C000FFF705FF00210220FFF701FF00210320A2
:1017D000FFF7FDFE00210420FFF7F9FEEF210520B1
:1017E000FFF7F5FE00210620FFF7F1FE002107209C
:1017F000FFF7EDFE01210820FFF7E9FE8F21092008
:10180000A0E004211A20FFF7E2FE0C211B20FFF7C5
:10181000DEFE00212320FFF7DAFE40212420FFF71F
:10182000D6FE0F212520FFF7D2FE06212D20FFF73F
:10183000CEFE1420FFF76FFE08211820FFF7C7FE29
:1018400001211920FFF7C3FE1420FFF764FE0021D9
:101850000120FFF7BCFE88211F20FFF7B8FE0621FC
:101860001C20FFF7B4FE0A20FFF755FE80211F2041
:10187000FFF7ADFE0A20FFF74EFE90211F20FFF775
:10188000A6FE0520FFF747FED0211F20FFF79FFE91
:101890000A20FFF740FE05211720FFF798FE0021E0
:1018A0004020FFF794FE09214120FFF790FE12210E
:1018B0004220FFF78CFE04214320FFF788FE002121
:1018C0004420FFF784FE23214520FFF780FE0321FB
:1018D0004620FFF77CFE5E214720FFF778FE0021BF
:1018E0004820FFF774FE00214920FFF770FE002119
:1018F0004A20FFF76CFE00214B20FFF768FE002115
:101900004C20FFF764FE00214D20FFF760FE002110
:101910004E20FFF75CFE4F215720FFF758FEC821ED
:101920001620FFF754FE38212820FFF750FE28200C
:1019300004E0000000C0092098000010FFF7EBFD54
:101940003C212820FFF743FEBDE870400A20E2E575
:1019500070B50C460546010A8020FFF738FEE9B253
:101960008120FFF734FE210A8220FFF730FEE1B22A
:10197000BDE8704083202AE62DE9F0410E46074677
:10198000010A1C4615460220FFF721FEF9B203208A
:10199000FFF71DFE290A0420FFF719FEE9B2052012
:1019A000FFF715FE310A0620FFF711FEF1B20720FE
:1019B000FFF70DFE210A0820FFF709FEE1B209201A
:1019C000FFF705FEFB480089652804D131463846FB
:1019D000BDE8F041BCE7BDE8F081EF22002140F214
:1019E0008F130846C8E770B51646F24A1289652A71
:1019F00012D00B460246FFF7BFFF00BFEE4C4FF080
:101A00008055E5632220FFF795FDE810A061304680
:101A1000FFF7CEFDA56370BDFFF79AFFEEE72DE956
:101A2000F0478146FFF7D9FFE34E4FF08057F76349
:101A30002220FFF77FFDF810B06100254FF4C87831
:101A400000244846FFF7B4FD641CF02CF9D36D1C4C
:101A50004545F5D3B763BDE8F0872DE9F05F9B46B8
:101A600016468A460746FFF787FFDFF84C834FF09C
:101A700080594446C8F83C902220FFF75BFD4FF0A8
:101A80000070A061F71B00257F1CABEB0A04641CEF
:101A900008E0002603E00A98FFF78AFD761CB742AB
:101AA000F9D86D1CAC42F4D8C8F83890BDE8F05FA6
:101AB00093E7C04908807047BE4948807047024696
:101AC000012000E050430B00A1F10101C9B2F9D19E
:101AD00070472DE9F0419846174601EB0802521E67
:101AE00093B2C219521E92B289B280B2069EFFF71B
:101AF00043FFB14C4FF08050E0632220FFF71AFD06
:101B00004FF00070A06100250AE0002405E000BF4E
:101B100036F8020BFFF74CFD641CBC42F8D36D1C79
:101B20004545F2D3BDE8F04157E72DE9FF4FDFF817
:101B300084B281B00C4605468A46203ABBF8048040
:101B4000D1B20E981E460391B8B300206EE00C2E61
:101B50000DD09A49039801EB001100BF11F80970EC
:101B60004FF000000090380608D5424608E0039880
:101B700000EB4001924800EB8101EFE7BBF8062043
:101B800021462846FFF72FFF7806641C070EA4B2F3
:101B9000F02D4ED2A4EB0A00B04205D16D1CADB2BF
:101BA0005446F02D45D205E00098401CC0B200908C
:101BB0000828D8D309F10100C0B28146B042C6D38B
:101BC00037E00C2E22D07D49039801EB001100BFB5
:101BD00011F809704FF000000090380605D5BBF8E9
:101BE000042021462846FFF7FEFE7806641C070EF7
:101BF000A4B2B5F5C87F1CD2A4EB0A00B0420CD148
:101C00006D1CADB25446F02D13D20CE0039800EBDE
:101C100040016B4800EB8101DAE70098401CC0B23C
:101C200000900828D9D309F10100C0B28146B04222
:101C3000C7D3ABF8048005B0BDE8F08F2DE9F84FAD
:101C4000044600F0FF0910190D46DDE90AB61FFA37
:101C500080F8581987B24FF0000A12E0444503D3C8
:101C600005EB0B004C4685B2BD420FD25B462946C0
:101C70002046CDF800A0FFF758FF04EB5B0084B2CC
:101C8000761C3278A2F120005E28E7D9BDE8F88FF3
:101C90002DE9FF4F81B04FF00008DDE90EBA1E4676
:101CA000814644460AF001054FEA5B072DE0301BF0
:101CB000401EC1B20A20FFF702FF0399B1FBF0F00A
:101CC0000A21B0FBF1F201FB1200B8F1000F05D1BF
:101CD000711E8C4202DA48B14FF001083030C2B2B6
:101CE00007FB049080B25B46009509E04FEA0A606A
:101CF000002807FB049080B25B46009508DA30228A
:101D00000299FFF712FF641CE4B2B442CFD392E70A
:101D10002022F5E72DE9FE4F161ACDE900104FF00D
:101D200000085D1A47464FF0FF30002E02DD4FF0ED
:101D3000010102E003D14FF000018B4602E083462F
:101D4000C6F10006002D02DD4FF0010002E003D1D4
:101D50004FF00000824602E08246C5F10005AE4227
:101D600001DD344600E02C46601C4FF00009029073
:101D70001AE000980F4A81B20198928880B2FFF76A
:101D800032FEB0442F44A04504DD0198A8EB0408BE
:101D900058440190A74203DD00983F1B5044009037
:101DA00009F101001FFA80F902998945E1DDBDE8DA
:101DB000FE8F00009800001000C009208C62000017
:101DC000185E00002DE9F0411C4615460E460746F8
:101DD0000B46FFF79FFF3A46234631461046FFF772
:101DE00099FF23462A4619463846FFF793FF2A46AD
:101DF00023463146BDE8F04110468BE72DE9FE4F02
:101E000081460025144603208846A0EB440754E091
:101E1000A8EB0400344E029081B209EB050B1FFAC7
:101E20008BF0B288FFF7DFFDA8EB0500019081B2CF
:101E300009EB040A1FFA8AF0B288FFF7D4FD08EB19
:101E40000500009081B21FFA8AF0B288FFF7CBFD3F
:101E500008EB040A1FFA8AF11FFA8BF0B288FFF729
:101E6000C2FDA9EB050B1FFA8AF11FFA8BF0B288AD
:101E7000FFF7B9FD0098A9EB040A81B21FFA8AF0B6
:101E8000B288FFF7B0FD0298B28881B21FFA8BF0DA
:101E9000FFF7A9FD0198B28881B21FFA8AF0FFF717
:101EA000A2FD6D1C002F03DA07EB8507BF1D04E0C0
:101EB000281B07EB80070A37641EA542A8DD76E7DA
:101EC00070B50A4C0546FF20E065280AA065FEF7BC
:101ED00055F94FF47F00E0612806000AA061BDE8D3
:101EE0007040FEF74BB900009800001000C00920B8
:101EF00053EA020C00F069802DE9F04B4FF0000628
:101F0000002B1FBFB3FA83F503FA05F424FA05F694
:101F10005E4012BF1643B2FA82F502FA05F4C5F12B
:101F200020051EBF22FA05FC44EA0C04203556EABF
:101F3000044C4FEA144418BF641C4FF000084FF0E3
:101F40000009904271EB030C39D3002919BFB1FA93
:101F500081F701FA07F6B0FA80F700FA07F6C7F141
:101F600020071EBF20FA07FC46EA0C062037B6FB06
:101F7000F4FCA7EB0507103F07F01F0BCBF1200681
:101F80000CFA0BFB2CFA06F644BFB3460026202FB2
:101F9000A4BF5E464FF0000B5BEA060C08BF4FF093
:101FA000010B19EB0B09ABFB027C48EB0608C01BCD
:101FB00006FB02CC0BFB03CC71EB0C01C1E70B461B
:101FC000024641464846BDE8F08B13B54FF000008D
:101FD0004FF00001AFF30080BDE81C4070470000E7
:101FE0002DE9F05F894604464FF0000ADFF878B12A
:101FF000FB44C0F820A02046E1688847002875D03F
:10200000252806D0D4E901219047206A401C20628F
:10201000F1E700265F462046E1688847202805460C
:1020200008DB312D06D207EB050010F8200C08B1B3
:102030000643F0E7B00701D526F00406C4F81CA05B
:102040000027C4F818A02A2D09D0284601F0F8FF6F
:1020500038B304EB8708303DC8F8185019E059F838
:10206000041B204604EB87029161E1688847012F39
:10207000054618D1E069002820DA26F020061DE088
:10208000D8F8180000EB800005EB40003038C8F8A5
:1020900018002046E1688847054601F0D1FF002876
:1020A000EED1012F0AD02E2D08D12046E1688847B5
:1020B0007F1C0546022F46F02006C4DBA0690028DD
:1020C00003DA404246F00106A061F00701D026F095
:1020D00010066C2D0BD0682D09D04C2D39D06A2DEF
:1020E00035D0742D35D07A2D33D016E038E0E16844
:1020F0002F4620468847B842054609D16C2F26D086
:102100004FF48060E168064320468847054604E0B6
:102110006C2F1AD04FF4807006430DB3A5F1410027
:10212000192802D8203546F400664A46294620463A
:1021300026604E46FEF704F880B101280BD0F61D4C
:1021400026F0070000F1080955E74020E4E7802069
:10215000D8E70020D6E706F104094CE7284651E706
:10216000206ABDE8F09F0000E14900000B4910B56E
:10217000A1F17C020A4CC2E93712372106E000EBDC
:10218000104342F82130074B00FB03400B1EA1F126
:102190000101F4DC10BD0120E8E70000C4020010DA
:1021A000E119D666CD0D010040EA010310B59B0789
:1021B0000FD1042A0DD310C808C9121F9C42F8D0B1
:1021C00020BA19BA884201D9012010BD4FF0FF3062
:1021D00010BD1AB1D30703D0521C07E0002010BD78
:1021E00010F8013B11F8014B1B1B07D110F8013B04
:1021F00011F8014B1B1B01D1921EF1D1184610BDE5
:10220000032A40F2308010F0030C00F0158011F822
:10221000013BBCF1020F624498BF11F801CB00F8FA
:10222000013B38BF11F8013BA2F1040298BF00F84E
:1022300001CB38BF00F8013B11F0030300F0A1808F
:10224000083AC0F0088051F8043B083A51F804CB32
:10225000A0E80810F5E7121D5CBF51F8043B40F8F8
:10226000043BAFF30080D20724BF11F8013B11F803
:1022700001CB48BF11F8012B24BF00F8013B00F847
:1022800001CB48BF00F8012B70474FF00002042932
:10229000C0F0128010F0030C00F01B80CCF1040C95
:1022A000BCF1020F18BF00F8012BA8BF20F8022BC9
:1022B000A1EB0C0100F00DB85FEAC17C24BF00F86F
:1022C000012B00F8012B48BF00F8012B70474FF09D
:1022D000000200B5134694469646203922BFA0E876
:1022E0000C50A0E80C50B1F12001BFF4F7AF090782
:1022F00028BFA0E80C5048BF0CC05DF804EB890073
:1023000028BF40F8042B08BF704748BF20F8022BB5
:1023100011F0804F18BF00F8012B704701694A1C6B
:1023200002610878704700B58FB0CDE90131002116
:10233000059105497944CDE9031011466846FFF738
:102340004FFE0FB000BD0000E5FFFFFF0A6802F876
:10235000010B0A60704710B5436913B1AFF30080F9
:1023600001E0FDF79BFF012010BD127800F1240170
:102370000A7000224A700122EDE711684FF0FF3227
:10238000E9E710B5203AC0F00B80B1E81850203AC8
:10239000A0E81850B1E81850A0E81850BFF4F5AF05
:1023A0005FEA027C24BFB1E81850A0E8185044BF8F
:1023B00018C918C0BDE810405FEA827C24BF51F8FC
:1023C000043B40F8043B08BF7047D20728BF31F8F0
:1023D000023B48BF11F8012B28BF20F8023B48BF41
:1023E00000F8012B70477546FDF784FFAE460500E7
:1023F0006946534620F00700854618B020B5FDF722
:10240000E7FEBDE820404FF000064FF000074FF018
:1024100000084FF0000B21F00701AC46ACE8C00902
:10242000ACE8C009ACE8C009ACE8C0098D4670470B
:102430000446AFF300802046FDF799FE00210846D0
:1024400000F000BA0121002000F0FCB902210020B8
:1024500000F0F8B90321002000F0F4B900210120B8
:1024600000F0F0B90121084600F0ECB9022101208A
:1024700000F0E8B90321012000F0E4B970B504468A
:102480000F4A00EB840012EBC0030E4850F8240002
:102490000BD060B15976D3F815609A7E456A1D332A
:1024A0003046A84728B1012070BD012102E0022179
:1024B00000E00E21204601F0C1FC002070BD0000AC
:1024C000100100100400001070B50446104A00EB23
:1024D000840012EBC0030F4850F824000DD070B1F7
:1024E000A3F82110D3F815509A7E597E466A1D3301
:1024F0002846B04728B1012070BD012102E0022129
:1025000000E00E21204601F099FC002070BD000083
:10251000100100100400001070B50646164900EBCB
:10252000860011EBC004154850F8260019D0D0B130
:10253000072104F81D1F022161700025A570E570B8
:102540000821A180A5711D3C036A04F11D022946E2
:102550002846984744F8150F6560206828B1012087
:1025600070BD012102E0022100E00D21304601F0A2
:1025700065FC002070BD0000100100100400001078
:102580002DE9F74F06467C4F00EB8601794857F856
:10259000265086B093464FF0000910EBC1044AD094
:1025A000002D50D000213046FFF768FF002847D0AB
:1025B00057F826705A462346CA46D7B39A76597EAC
:1025C000D3F815007F6A1D33B84798B34FF0010860
:1025D00008213046FFF778FF002831D0082204A9EF
:1025E000304601F0E5FE00282AD00821049ACDF8F3
:1025F00000A0CDE90121002301221946304600F058
:10260000D5F8070005D00498C1793046FFF75CFF84
:1026100007403046049901F0FDFE002810D069689B
:1026200002208847207D401C10F07F0020750ED0CE
:1026300010E008E009E00121304601F0FFFB002036
:1026400009B0BDE8F08F0221F6E70E21F4E740461D
:1026500084F81480C1B2304601F0AAFB0028EFD004
:10266000217D3046FFF70AFF0028E9D069680A207B
:102670008847092203A9304601F09AFE0028DFD0DE
:102680000921039ACDF800A0CDE9012100230222FF
:102690001946304600F08AF810EA070802D003987D
:1026A000B0F802903046039901F0B4FE0028C7D07C
:1026B0006968022088474A4603A9304601F078FE3F
:1026C0000028BDD0039ACDF800A0CDE90129002350
:1026D00002221946304600F069F810EA080741D096
:1026E000039801780844407900F04AF88046FF28B2
:1026F00001D0012000E0002007402FD01F4850F8F3
:102700002810D1F804C0BCF1000F2BD00399009120
:102710008146237D5A4630460799E0478246FF2886
:1027200001D0012000E0002007403046039901F06D
:1027300071FE044687B1696802208847012130464E
:1027400001F059FB074007D059F82800C2681AB1B8
:10275000514630469047074024B109E01D213046DC
:1027600001F06CFB3046039901F054FE002886D03E
:10277000384665E710010010040000100C0000103E
:1027800010B501460020074B074A06E053F82040E9
:1027900024788C4205D0401CC0B21478A042F5D3F6
:1027A000FF2010BD0C000010864500002DE9F84FF9
:1027B0001646DDE90B940F461D46824608226946FF
:1027C000DDF8288001F0F4FD002827D00099087872
:1027D00020F0600040F0800067F3040008700620DD
:1027E000487045EA06204880A1F80480CC80504615
:1027F00001F09EFA05465046009901F00BFE0028B4
:102800000CD022464946504601F0CAF900EA0504B8
:1028100000221146504601F027FA2040BDE8F88F0B
:1028200006490978884201D301207047044900EB2A
:10283000800001EBC000406A704700008445000042
:102840001001001070B5054611480C46114900787A
:1028500005FB004001EB0010C2682AB15069C0F3CB
:102860004310022807D00DE021462846BDE87040FD
:102870001B2200F08DBAD068126883B22146284628
:1028800001F08EFC21462846BDE8704000F078B982
:1028900088450000380100102DE9FF5F8946064693
:1028A0009B460025544955480E9F0DE003D1FF205B
:1028B00004B0BDE8F09FD2B206FB025201EB021257
:1028C000D26822B16D1CEDB202789542EED94C4B24
:1028D000007806EB860213EBC20206FB0050494B60
:1028E00001EB0014484953F826A000EB800001EBEF
:1028F000001818D0BAF1000F17D0C4B1B8F1000F0A
:1029000017D0002020606060A060E0605021404649
:10291000FFF7DDFCC4F80C8038783844417907793A
:1029200003295CD10CE0012204E0022202E0032230
:1029300000E01B222946304600F02AFA0020B7E7C3
:10294000C179217084F8019084F802B00299E17095
:10295000017801448B7988F84330B1F80730A8F842
:102960004430827988F842200878084431E000BF7A
:1029700099F80300C043800729D199F80200DAF8DA
:102980002030000602994A4658460FD598474146DE
:10299000C8F8240048B3D9F80020CA62B9F8042066
:1029A0000A8699F8060081F8320010E09847C8F8C6
:1029B0003300D0B1D9F80020C8F83B20B9F8042082
:1029C0004120A8F83F2099F8061000F8081009F1F6
:1029D000070081463800A7F10107FFB2C8D120796E
:1029E00040F001002071284662E70D22294630465A
:1029F00000F0CEF95BE700003801001088450000C8
:102A0000100100100400001048010010094A12785B
:102A1000904201D301207047074A1378994201D3AD
:102A20001B207047DAB200FB0210044901EB0010D2
:102A30008068704784450000884500003801001018
:102A40002DE9FF410F460546434A414900EB850009
:102A5000127811EBC00105FB0272404B3D4803EBBD
:102A6000021650F82500F46839D0A8B3AEB3ACB361
:102A700000231A461946284600F05CF900283AD08F
:102A8000B4F8442003A9284601F092FC002832D073
:102A90000020B4F8442003998DE80700034694F819
:102AA000432001212846FFF781FE8046394628460B
:102AB000039A01F01FFC2846039901F0ABFC0028A3
:102AC00019D0228E2146284601F072FC002812D02F
:102AD000A5B1012D22D031E003E004E005E00122A0
:102AE00004E0022202E0032200E01B2239462846CD
:102AF00000F04EF9002004B0BDE8F08137B1012F9D
:102B000006D0022F06D0032F18D105E0144814E098
:102B1000144812E0144810E014480EE037B1012FB9
:102B200006D0022F06D0032F08D105E0104804E09C
:102B3000104802E0104800E010482062394628465C
:102B400000F01EF8307940F0020030714046D2E7C4
:102B5000100100100400001088450000380100102A
:102B60003D240000452400004D24000055240000B1
:102B70005D240000652400006D2400007524000021
:102B800070B5044618480D4650F8240000B31749A4
:102B9000174A097804FB015102EB0111C968C9B158
:102BA0004A6ABAB10A680A600A8E8A600A6922F023
:102BB0000F0209320A610A6922F020020A61012229
:102BC0008A614A6AC36A1046984728B1012070BDDD
:102BD000022203E01B2200E011222946204600F0D9
:102BE000D7F8002070BD00000400001088450000E8
:102BF00038010010FEB517460E461C4605461A461B
:102C000002A901F0D5FB00281DD0224639460298C2
:102C1000FFF7F6FA15481649007805FB006001EB4E
:102C20000010C06848B1D0F8330068B1284631467A
:102C30002346029A00F01EF80FE01B223146284678
:102C400000F0A6F80020FEBD0298CDE900040023A4
:102C50001A460221284600F0A9F80446284602999F
:102C600001F0D8FB0028EED02046FEBD88450000CC
:102C7000380100102DE9F04F154607462A4A00EBAF
:102C8000870012EBC00229481C46294B007889B006
:102C900007FB001003EB0010C6683BD0C0B3C6B3FF
:102CA00024216846FFF713FB4FF064084FF0010939
:102CB0004FF47A7B06F1330AB6F83F00A04200D306
:102CC000204600950290049820F00F00401C0490CC
:102CD000049820F020000490CDF818905B466A46D6
:102CE0005146384601F0F0FB0146039820B10398A5
:102CF00005440398201A84B234B15FEA0800A8F1B1
:102D000001021FFA82F8D7D1084609B0BDE8F08F5A
:102D100002E003E0012202E0032200E01B22384629
:102D200000F036F80020F0E71001001088450000A0
:102D300038010010F8B515460E461C460746082215
:102D4000694601F035FB002820D00099087820F072
:102D5000E000203020F01F00401C08700A2048705E
:102D600046EA042048808D800020C880384600F064
:102D7000DFFF04463846009901F04CFB002805D0DF
:102D800000221146384600F00BFF2040F8BD00003D
:102D9000044B1B7800FB0310034901EB0010826019
:102DA0007047000088450000380100102DE9F84305
:102DB0001646DDE908840F461D468146082269460D
:102DC00001F0F6FA002826D00099087820F0E000FB
:102DD000203020F01F00401C08700920487046EA8F
:102DE000072048808D80CC80484600F0A1FF054632
:102DF0004846009901F00EFB00280CD022464146BF
:102E0000484600F031FF00EA05040022114648461A
:102E100000F0C6FE2040BDE8F88300002DE9F04731
:102E20008A46074629492848097850F8279007FB21
:102E300001A02749B9F1000F01EB0015254900EB6E
:102E4000800001EB00160DD075B19EB128790124E8
:102E5000C00727D0D9F82810706A884710F00108F9
:102E60000AD00EE0022200E0032251463846FFF766
:102E70008FFF27E01B22F8E70F2251463846FFF765
:102E800087FF3168384601F0C5FA00EA0804D6F831
:102E9000330030B1D9F828108847044002D10F22FE
:102EA000E3E77CB150213046FFF711FA002028609B
:102EB0006860A860E860287920F001002871204649
:102EC000BDE8F0870020FBE7040000108845000003
:102ED0003801001048010010094A10B51278094B5A
:102EE00000FB021213EB021205D0107920F0020051
:102EF0001071012010BD0322FFF74AFF002010BD12
:102F0000884500003801001001490968496A0847EE
:102F100008000010002809D0C2680021016041604B
:102F2000037A03F00F038360C160104670470028E6
:102F300004D000E00846C1680029FBD170470000BA
:102F40002DE9F04F012803D84FF40050BDE8F08F71
:102F5000052100E0491E30FA01F201D10029F9D122
:102F600020231948CB40002600684FF0010C0CFAD2
:102F700001FC3446B1464FF0FF3A3746D0F80C809A
:102F80001DE000221546DFF844B010E01BF80610E3
:102F90000020761C58F8211029B1012000E0401CC7
:102FA000C9680029FBD1904200D902466D1C9D42A0
:102FB000ECD3524501D2A14692461C447F1C674582
:102FC000DFD349EA0320C1E7080000107C68000055
:102FD00010B5002846D08168090942D04178224CBA
:102FE00021F040014170C078C0F3C10030B1012828
:102FF00015D002281AD0032833D128E02068C16AEE
:103000000820884740F002012068826A0820904723
:103010002068C16A0420884740F010011DE0206844
:10302000C16A0420884740F0080116E02068C16AA0
:103030000820884740F004012068826A08209047F1
:103040002068C16A0420884740F0200105E020681C
:10305000C16A0420884740F004012068826A042085
:103060009047012010BD00000800001070B504005A
:103070000FD06078264D40F040006070E078C0F3DB
:10308000C10040B1012813D002281ED0032839D135
:1030900028E0002070BD2868C16A24208847A0422B
:1030A00030D12868C16A0420884720F0100125E04B
:1030B0002868C16A1C208847A04223D12868C16AB9
:1030C0000420884720F00C0118E02868C16A2C20F1
:1030D0008847A04216D12868C16A0420884720F09A
:1030E00020010BE02868C16A1C208847A04209D152
:1030F0002868C16A0420884720F004012868826A91
:10310000042090470120FFF7FFFE012070BD000062
:10311000080000102DE9F0414D4D06460B46286889
:10312000002104696CB187885FB1002007E000BF0F
:1031300094F803C05FEADC0C07D01034401C8742CF
:10314000F6D84FF00000BDE8F081002CF9D0D0781F
:1031500000F0030040F01007E07867F3C700E0706C
:103160009788608867F30A006080D07800F00300D9
:10317000012860782AD020F0800000BF20F0600095
:10318000607033B320F020006070D3789B0723D0A9
:103190009378012707EBD31363F3C4006070907832
:1031A000238860F3CA132380207866F3060020701A
:1031B0006160A160E160D07810F003000FD00128B9
:1031C00041D0022815D003283DD121E040F08000F5
:1031D000D4E740F02000D7E720F01800DEE72868A9
:1031E000C16A2020884748B928682146826A202081
:1031F0000CE02868C16A2820884718B1FFF797FEBD
:10320000C46020E028682146826A282090471AE09E
:103210002868C6689079FFF793FE050A00F01F073B
:10322000DFF830800DE000BF18F807007F1C06EBC8
:103230008000016849B10846FFF779FEA04200D03E
:10324000C4606D1EF0D220467DE70460F9E70000FF
:10325000080000107C6800002DE9F0411D4617466B
:103260000E46002839D00446FFF700FF002834D06E
:10327000E87800F0030040F01001E07861F3C70047
:10328000E070A988608861F30A006080E87800F047
:1032900003000128607822D020F0800020F0400058
:1032A0006070FFB120F020006070E97889071CD0C1
:1032B000A978012202EBD11161F3C4006070A978F2
:1032C000208861F3CA102080207866F30600207001
:1032D00000206060A060E0600120BDE8F08140F067
:1032E0008000DBE740F02000DEE720F01800E5E793
:1032F00070B500287ED00446FFF7B8FE002879D0CC
:10330000A06820F00F0510E0284600F00DFB40B14A
:1033100041684A6942F004024A6100F0FDFA00285F
:1033200068D0284600F04EFB0546002DECD1E07831
:103330004F4DC0F3C10030B1012824D0022836D04F
:1033400003287ED157E02868C16A24208847A0421C
:1033500004D12868E168826A242090472868C16AFD
:1033600020208847A0426CD12868E168826A20202A
:103370009047E068002864D12868C16A0420884723
:1033800020F0100131E02868C16A1C208847A04263
:1033900004D12868E168826A1C209047E06840BB3D
:1033A0002868C16A0420884720F00C011DE02868C5
:1033B000C16A2C208847A04204D12868E168826A4B
:1033C0002C2090472868C16A28208847A04238D11D
:1033D0002868E168826A28209047E06848B9286830
:1033E000C16A0420884720F020012868826A0420EE
:1033F000904726E036E02868C16A1C208847A04232
:1034000004D12868E168826A1C209047E06848B9C6
:103410002868C16A0420884720F004012868826A6D
:10342000042090472868134EC2680020315C02EBEC
:1034300081010B68A34201D1E3680B60401C202886
:10344000F4D35CB12A68106940B1002192880CE085
:10345000C568A54207D108B1E168C1602046FFF701
:1034600059FD012070BD1030491C8A42F0D8F5E7A3
:10347000080000107C68000001490968096A0847D3
:10348000080000102DE9F04100241F4F25464FF0A1
:10349000540801263A6806FA05F01168014208D07E
:1034A000D16A08EB8500884700F00100A84004437A
:1034B00002E0401E814302D06D1C0F2DEAD3134958
:1034C000D1E9010525EA0406064304D0B04348606B
:1034D0003004BDE8F081088870B1401E0004000C83
:1034E000088003D00120FFF70FFD0BE06C4024EAB9
:1034F000050635438D6005E06C40AC4302D04FF4C7
:10350000FA7008803046E4E708000010F000001070
:103510000148C06870470000F00000102DE9F84F26
:10352000DFF89C914C46D9F80000C16A0C2088470E
:1035300006462068C16A1020884705462068C16A8F
:10354000502088472068C168826A0C20D1F884A086
:10355000314690472E427DD0DFF868B1700651D5D4
:1035600000250124D9F8002004FA05F8136813EAAD
:10357000080F44D0542000EB85000090D16A8847A2
:103580000746C00332D5F8071BD0DBF808105A46AF
:1035900018EA010F02D14FF4FA7010804FEA45018A
:1035A0004FF0030CD0680CFA01FC20EA0C00D0604C
:1035B0005FEA875C13D404FA01F30343CBF80C30C1
:1035C0000DE0DBF80800594618EA000F07D04B68F9
:1035D00020EA080048EA03024A60CBF80800D9F85C
:1035E00000004FF48031826A00989047F80206D5B7
:1035F000D9F800004FF48011826A009890476D1C42
:103600000F2DAFD9DBF8040098B1D9F800004F4670
:103610000024456909E0284600F086F918B14168A0
:10362000006800F061FA1035641C3868C088A04258
:10363000F1D8B00741D55546284600F075F9060087
:1036400038D0E878746801090BD00421B1EB101F61
:103650000CD100E031E0606920F4F07000F5E0701A
:1036600008E0606920F4F070403003E0010960690F
:1036700061F317406061606920F00100606160697A
:1036800040F008006061686890B1E968081AA168B4
:10369000081A401EE060AF6810212846FEF7F5FDCD
:1036A000002030607060206A28B1206A804702E004
:1036B000A068EFE7AF683D00BED1BDE8F88F00001D
:1036C00008000010F000001070B56B4C694D002828
:1036D00021687DD0496B01208847002877D0206879
:1036E0004FF48071C068FEF7F2FD002605E0006926
:1036F00000EB0610FFF70EFC761C20688188B142B3
:10370000F5D8002605E0406900EB061000F05AF9F4
:10371000761C2068C188B142F5D8008968B10026BE
:1037200007E0806910EB461002D02021FEF7ADFDC6
:10373000761C20680189B142F3D820680021826A92
:103740000420904720680021826A2020904720684A
:103750000021826A2820904720680121826A08207F
:10376000904720682946826A34209047206842F6B4
:103770002F21826A402090472068826AC168182001
:10378000904720684FF00041826A142090472068DB
:10379000C16A0C20884701462068826A0C20904745
:1037A0002068C16A0420884720F0C00040F08001F2
:1037B0002068826A0420904720683049826A10207D
:1037C00090472068C16B0120884751E000E050E03D
:1037D000C96B002088472068294E826A3146142030
:1037E00090472068C16A0420884740F0C0012068E3
:1037F000826A0420904720680021826A0420904752
:1038000020680021826A0820904720680021826A8F
:103810000C20904720683146826A14209047206827
:103820000021826A1820904720680021826A2020A7
:10383000904720680021826A242090472068002158
:10384000826A2820904720680021826A2C209047B5
:1038500020682946826A3420904720680021826AC5
:103860004020904720684FF4C561826A4420904709
:10387000012070BDDF2E7827080000104600008070
:103880007F0000C0034910B50968096B8847012013
:1038900010BD00000800001070B50C4C0500206839
:1038A000C16A4FF0500003D0884740F4803102E0F5
:1038B000884740F001012068826A502090472068C4
:1038C000816B28468847012070BD00000800001069
:1038D00070B5104D542101EB800628681021826AD2
:1038E0003046904742F2747407E02046641E642814
:1038F00003D86CB10A20FFF707FB2868C16A30467D
:103900008847C006F1D41420FFF7FEFA012070BDED
:10391000002070BD08000010002803D000210160C5
:10392000416001207047000010B5020013D00B4821
:103930000168C86978B1CB8809895B180BD0002170
:1039400006E0046824F00F04944206D00830491CB5
:10395000B1EB430FF5D34FF0000010BD080000108D
:1039600010B5020011D00A480168C86968B1CB8857
:1039700009895B1809D0002104E04468944206D00C
:103980000830491CB1EB430FF7D34FF0000010BDD6
:10399000080000100A480168C86968B1CA88098926
:1039A000521809D0002104E00368002B06D008302B
:1039B000491CB1EB420FF7D34FF0000070470000F5
:1039C0000800001010B5002804D084681021FEF70C
:1039D0005CFC204610BD000070B5020008D039B173
:1039E000114803685869A0B1DC8894B100230EE047
:1039F000002070BD86688E4207D150B18A6882600F
:103A00000846FFF7DFFF012070BD10305B1C9C42B1
:103A1000F0D8906820F00F038B42F1D18B6800F052
:103A20000F0018439060EBE708000010F0B50400A9
:103A300020D02B48002605686869D8B1EF88CFB13F
:103A4000002515E0D0F800C0BCF1000F0ED1D0F871
:103A500004C0BCF1000F09D1D0F808C0BCF1000FC0
:103A600004D1D0F80CC0BCF1000F06D010306D1C92
:103A7000AF42E7D84FF00000F0BD0028FAD001F0C7
:103A80000F074FF00005012F04D0092F04D14FF488
:103A9000801501E04FF40025C1F3011145EA0161F1
:103AA000104D294301601BB1D1184260491EC1600D
:103AB000A16862684A40120904D074B131F00F0164
:103AC0000BD005E001F00E010143A16005E01146B5
:103AD0008A68002AFBD101B188606660F0BD0000F1
:103AE00008000010000004F070B50C4606002BD052
:103AF00054B3FFF7BBFA002825D06069C00721D076
:103B0000606920F001006061206890B16069000781
:103B10000FD42046FFF724FF050015D02968304652
:103B2000FFF75AFF00280ED02846FFF7F5FE0028C1
:103B300009D0606940F0040060613046FFF748FA40
:103B4000002800D0012070BD002070BD70B50C466B
:103B5000060021D004B31148806800281BD0002043
:103B6000E0606061A36822682069C1B23046FFF757
:103B70005DFF05000FD0FFF70DFF00280BD005609B
:103B80004460606940F0010060613046FFF720FA50
:103B9000002800D0012070BD002070BDF000001092
:103BA0002DE9F04F894682462E4900EB8A008BB002
:103BB000144611EBC00617D024216846FEF787FB98
:103BC000B6F8215030684F464FF0640818B170685D
:103BD000A84200D985B206F115004FF0320B0990CA
:103BE000AC4209D9284608E00121504600F026F9E8
:103BF00000200BB0BDE8F08F20464F4500970290A3
:103C0000049921F00F0101F109010491049906D1F1
:103C100041F010010491049941F0200101E021F0EC
:103C200020010491F168069100B10120C0EB401120
:103C3000C1EB00210BEB41036A465046099900F0A5
:103C400043FC039921B103990F440399611A8CB283
:103C5000002CCED05FEA0801A8F101021FFA82F819
:103C6000BED1C6E7100100102DE9F04F894682460B
:103C70002E4900EB8A008BB0144611EBC00617D01A
:103C800024216846FEF723FBB6F8215030684F46E2
:103C90004FF0640818B17068A84200D985B206F1E7
:103CA00015004FF0320B0990AC4209D9284608E0C4
:103CB0000121504600F0C2F800200BB0BDE8F08FA3
:103CC00020464F4500970290049921F00F0101F121
:103CD00001010491049906D141F010010491049965
:103CE00041F0200101E021F020010491F1680691EA
:103CF00000B10120C0EB4011C1EB00210BEB4103EF
:103D00006A465046099900F0DFFB039921B10399F7
:103D10000F440399611A8CB2002CCED05FEA0801DF
:103D2000A8F101021FFA82F8BED1C6E71001001007
:103D30002DE9F0430E4607461C4900EB870089B089
:103D400011EBC0042BD024216846FEF7C0FA64258D
:103D50004FF0080804F115090096CDF80880049882
:103D600020F00F000D300490049820F01000049013
:103D7000049840F020000490A068069032236A4620
:103D80004946384600F0A0FB0399002904D12900D8
:103D9000A5F10105ADB2DFD109B0BDE8F083012185
:103DA000384600F04BF80020F6E700001001001044
:103DB00038B50C4605460822694600F0F9FA002895
:103DC00018D0009900200870052048704C80002011
:103DD0008880C8802846FFF7ABFF04462846009934
:103DE00000F018FB002805D0002211462846FFF7F6
:103DF000D7FE204038BD38B50C4605460822694636
:103E000000F0D6FA002818D0009900200870092088
:103E100048704C8000208880C8802846FFF788FFC3
:103E200004462846009900F0F5FA002805D0002243
:103E300011462846FFF7B4FE204038BD034A00EB88
:103E4000800002EBC00041627047000010010010CA
:103E50002DE9F35F01240E460027DFF8CCA1DFF83F
:103E6000CC9169E05AF827000078FEF789FC80467B
:103E7000FF285FD06E48017821B15AF828100978E0
:103E800008290DD06B48017821B15AF8281009781B
:103E900003291FD068480178A9B30025834645E06F
:103EA0000025834611E06548006810EB05100AD034
:103EB0004078B04207D15AF8280002691AB1294661
:103EC0000098904704406D1CEDB29BF800008542BD
:103ED000E9D32FE00025834611E05848406810EBF5
:103EE00005100AD04078B04207D15AF8280002697C
:103EF0001AB129460098904704406D1CEDB29BF81A
:103F000000008542E9D315E04C48806810EB0510AD
:103F10000AD04078B04207D15AF8280002691AB195
:103F200029460098904704406D1CEDB29BF80000B4
:103F30008542E9D37F1CFFB299F800108F4291D3DC
:103F4000002769E05AF827000078FEF719FC804640
:103F5000FF285FD03648017821B15AF82810097837
:103F600008290DD03348017821B15AF82810097872
:103F700003291FD030480178A9B30025834645E0C6
:103F80000025834611E02D48006810EB05100AD08B
:103F90004078B04207D15AF8280082681AB1294601
:103FA0000098904704406D1CEDB29BF800008542DC
:103FB000E9D32FE00025834611E02048406810EB4C
:103FC00005100AD04078B04207D15AF8280082681C
:103FD0001AB129460098904704406D1CEDB29BF839
:103FE00000008542E9D315E01448806810EB051005
:103FF0000AD04078B04207D15AF8280082681AB136
:1040000029460098904704406D1CEDB29BF80000D3
:104010008542E9D37F1CFFB299F80000874291D313
:104020002046BDE8FC9F00000C0000108645000003
:1040300087450000884500008945000010000010F9
:1040400030380A2801D20120704700207047000054
:104050002DE9F84F4F4980460120097800FA08F011
:10406000084210D04C4908EB880011EBC0064B49C0
:10407000404651F8287009D057B1B86980470446C6
:104080000120009074E00121404602E0012100E09F
:104090000221FFF7D3FE0020BDE8F88F00254FF086
:1040A000011100BF01FA05F0204203D16D1CEDB2F1
:1040B0000F2DF7D94FF0010B0BFA05F919EA040F90
:1040C0003ED0316939EA010034D04FF0000A7968F6
:1040D000FA208847796928468847D8B179684FF42B
:1040E000FA708847F86980476900C84000F0030209
:1040F00029464046FEF744FA5FEA000B16D14046D7
:10410000FEF78EFB1D2837D04046FEF789FB1128AD
:1041100032D003E00B214046FFF790FE0AF1010A7E
:10412000BAF1050FD3D3BBF1000F25D000214046D3
:10413000FFF784FE306989EA040440EA090030612F
:1041400019EA144F14D0306910EA090F08D0294633
:104150004046FFF77DFEB0B100214046FFF76EFEFE
:104160004FF48030A8404440306920EA09003061B3
:10417000002C93D100988FE715214046FFF75EFE93
:1041800000200090D6E716214046FFF757FE00209A
:104190000090E5E7854500001001001004000010C4
:1041A00070B515460C4A0D4C127800FB021204EB58
:1041B0000212D4685CB1082B08D81A46294604F1CB
:1041C0004600FEF71DF8012084F84E0070BDBDE8E2
:1041D00070401B22FEF7DCBD88450000380100104E
:1041E00010B51C460A4B1B78984201D3012204E00B
:1041F000084B1B78994204D31B22FEF7C9FD00200F
:1042000010BD2346FEF7F6FC0028F9D0204610BD6D
:1042100084450000884500002DE9F0472E4A4FF004
:10422000FF373C461278904201D3012217E02B4A17
:104230001378994212D2DAB200FB0213284A02EB39
:104240000312D56855B195F84E00C00742D095F8D5
:1042500042004FF00008012806D038E01B22FEF78C
:1042600097FD3846BDE8F087107801282FD1022647
:1042700005F14809A81990F84640012C04D084B1F2
:10428000032C15DC3C461EE0062216A14846FDF72D
:104290008BFF30B9C9F80080A9F8048085F84E80FA
:1042A0003C46761C082EE5DB072E10DA7CB111E0C7
:1042B00095F8460010F0220F03D0392C01DA0B4894
:1042C00000E00B48045DA91981F84680ECE785F809
:1042D0004E803C462046C5E78445000088450000E6
:1042E0003801001001010101010100009C6900007A
:1042F0009C68000070470000104A10B51278904288
:1043000001D3012204E00E4A1378994203D31B2201
:10431000FEF73EFD0FE0DAB200FB0212094B13EB91
:10432000021206D01079C10705D0800703D50120FD
:1043300010BD0322ECE7002010BD00008445000002
:10434000884500003801001070B505461548007812
:10435000854201D3002070BD134905EB850011EBA8
:10436000C000124951F8254015D0B4B121688847E2
:10437000A16801208847E168012088472169012060
:1043800088476168642088472846FEF7C5F80028FA
:10439000E1D0012070BD012100E002212846FFF795
:1043A0004DFDD7E784450000100100100400001007
:1043B00070B50D460446114600F00AF8286008B1B1
:1043C000012070BD06212046FFF738FD002070BD9A
:1043D0000B3121F003020E4910B551F8200001689D
:1043E00044680B1A1B1B934205D208460968002932
:1043F000F5D1002010BD3CB1211803680B600160AD
:1044000001F108004A6010BD4260083010BD000094
:104410000001001010B5044600F00AF808B10120B0
:1044200010BD07212046FFF709FD002010BD000048
:1044300010B5B1B10C4A083952F8200000220346E9
:1044400006E0024600680478A4070AD1002809D0D3
:104450008842F6D1834202D10021416001E0006828
:104460001060012010BD00000001001010B50446CE
:1044700000F00AF808B1012010BD05212046FFF721
:10448000DDFC002010BD000070B50446B9B1B2B12A
:104490000C4D084605F1080645F8241046F824207E
:1044A0001146FDF714FF55F8240056F82410002299
:1044B0000144091F01600A604260012070BD0020B4
:1044C00070BD0000000100102DE9F0478846074646
:1044D0002A4900EB870011EBC00029491E4614460B
:1044E00051F827501CD0EDB1D8F80000F8B104B352
:1044F000EA6A21469047F0B106F109004FF00A013F
:10450000B0FBF1F010EBC6361FFA80F928D06069D5
:104510000007606918D510F47F0F0ED0132120E03A
:10452000012100E002213846FFF788FC22E00C213F
:10453000F9E71021F7E71121F5E700213846FFF7E9
:104540007DFC0120BDE8F087400713D46069C006F8
:1045500006D44E4502D869680A208847761ED6D10F
:1045600014213846FFF76AFC2A6BD8F80000214670
:10457000904708B10020E5E71221D4E710010010B0
:10458000040000100101010001000000E0FF00F83C
:10459000FF071F00FFFFE007000000000000000011
:1045A00004040404040004000A0A0A0000000000D5
:1045B0000A0A1F0A1F0A0A00041E050E140F04002F
:1045C0000313080402191800020505021509160054
:1045D0000C0C04020000000008040202020408009F
:1045E00002040808080402000004150E0E15040059
:1045F0000004041F04040000000000000C0C04026E
:104600000000001F0000000000000000000C0C0073
:1046100000100804020100000E11131519110E00FC
:104620000406040404040E000E11100E01011F0004
:104630001F10080C10110E00080C0A091F080800B2
:104640001F010F1010110E001C02010F11110E009E
:104650001F101008040201000E11110E11110E009E
:104660000E11111E100807000000040004000000D5
:1046700000000400040402001008040204081000F2
:1046800000001F001F0000000204081008040200C0
:104690000E11100C040004000E11151D0D011E005A
:1046A000040A11111F1111000F11110F11110F0028
:1046B0000E11010101110E000F11111111110F0046
:1046C0001F01010F01011F001F01010F0101010066
:1046D0001E11010119111E001111111F11111100DC
:1046E0000E04040404040E001C080808080906004F
:1046F00011090503050911000101010101011F0054
:10470000111B151515111100111113151911110097
:104710000E11111111110E000F11110F01010100E5
:104720000E111111150916000F11110F05091100B5
:104730000E11010E10110E001F15040404040400D4
:104740001111111111110E0011111111110A040092
:104750001111111515150A0011110A040A11110081
:1047600011110A04040404001F10080E02011F00A6
:104770001E02020202021E000001020408100000D4
:104780001E10101010101E00040A1100000000007E
:104790000000000000001F000606040800000000E2
:1047A000000006080E091E0001010D1311130D0073
:1047B00000000E1101110E0010101619111916002B
:1047C00000000E111F010E000814040E0404040062
:1047D00000000E191916100E01010D131111110010
:1047E0000400060404040E00080008080809060076
:1047F00001010905030509000604040404040E0070
:1048000000000B151515150000000D1311111100F6
:1048100000000E1111110E0000000D13130D010107
:10482000000016191916101000000D1301010100E7
:1048300000001E010E100F0004041F0404140800E1
:10484000000011111119160000001111110A0400C5
:104850000000111115150A000000110A040A1100C8
:10486000000011111E10110E00001F0804021F008D
:1048700008040402040408000404040004040400FE
:1048800002040408040402000215080000000000ED
:10489000000000000000000000000C12120C0000DC
:1048A00000000C1E1E0C000000001E12121E000054
:1048B00000001E1E1E1E000000000C0C121E000038
:1048C00000000C0C1E1E000000001E120C0C00004C
:1048D00000001E1E0C0C0000000018161618000028
:1048E0000000181E1E1800000000061A1A0600001C
:1048F0000000061E1E06000000000C12120C000034
:1049000000000C1E1E0C000000001E12121E0000F3
:1049100000001E1E1E1E000000000000000000001F
:104920000000000000000000000000000000000087
:104930000000000000000000000000000000000077
:1049400000000000000000000000800180018001E4
:10495000800180018001800180018001800180014F
:104960008001800100000000800180010000000043
:10497000000000000000000000000000CC00CC009F
:10498000CC00CC00CC00CC000000000000000000F7
:104990000000000000000000000000000000000017
:1049A0000000000000000000000000000000000007
:1049B00000000000600C600C600C30063006FE1F2A
:1049C000FE1F300638071803FE1FFE1F18031803CA
:1049D0008C018C018C01000000008000E003F80FC6
:1049E0009C0E8C1C8C188C009800F801E007800E3F
:1049F000801C8C188C189C18B80CF00FE0038000F9
:104A000080000000000000000000000000000E1800
:104A10001B0C110C11061106110311039B018E01D1
:104A2000C038C06C60446044304430441844186C52
:104A30000C380000000000000000E001F00338071F
:104A4000180618063003F001F000F8009C310E3310
:104A5000061E061C061C063FFC73F0210000000029
:104A60000000000000000000000000000C000C002E
:104A70000C000C000C000C00000000000000000006
:104A80000000000000000000000000000000000026
:104A90000000000000000000000000020003800190
:104AA000C000C00060006000300030003000300006
:104AB000300030003000300060006000C000C000F6
:104AC0008001000300020000000020006000C00020
:104AD00080018001000300030006000600060006B6
:104AE00000060006000600060003000380018001A6
:104AF000C000600020000000000000000000000076
:104B000000000000C000C000D806F807E001300334
:104B10003807000000000000000000000000000056
:104B20000000000000000000000000000000000085
:104B30000000000080018001800180018001FC3FB5
:104B4000FC3F8001800180018001800100000000A5
:104B50000000000000000000000000000000000055
:104B60000000000000000000000000000000000045
:104B70000000000000000000000080018001000132
:104B800000018000000000000000000000000000A4
:104B90000000000000000000000000000000000015
:104BA000E007E00700000000000000000000000037
:104BB00000000000000000000000000000000000F5
:104BC00000000000000000000000000000000000E5
:104BD00000000000000000000000C000C000000055
:104BE00000000000000000000000000C000C0006A7
:104BF000000600060003000300038003800180011B
:104C00008001C000C000C000600060000000000023
:104C100000000000000000000000E003F007380E74
:104C2000180C0C180C180C180C180C180C180C1864
:104C30000C180C18180C380EF007E00300000000E8
:104C40000000000000000000000000018001C00121
:104C5000F0019801880180018001800180018001BC
:104C6000800180018001800180018001000000003E
:104C700000000000000000000000E003F80F180C26
:104C80000C180C1800180018000C00060003800116
:104C9000C000600030001800FC1FFC1F0000000076
:104CA00000000000000000000000E001F807180EFE
:104CB0000C0C0C0C000C0006C003C007000C001804
:104CC00000180C180C18180CF807E003000000007E
:104CD00000000000000000000000000C000E000FAB
:104CE000000F800DC00C600C600C300C180C0C0C0C
:104CF000FC3FFC3F000C000C000C000C000000000E
:104D000000000000000000000000F80FF80F18007D
:104D100018000C00EC03FC071C0E001C0018001807
:104D200000180C181C0C180EF807E0030000000017
:104D300000000000000000000000C007F00F381C59
:104D4000181818000C00CC03EC0F3C0E1C1C0C189F
:104D50000C180C18181C380EF007E00300000000B7
:104D600000000000000000000000FC1FFC1F000C01
:104D700000060006000380038001C001C000E000BF
:104D80006000600070003000300030000000000063
:104D900000000000000000000000E003F007380EF3
:104DA000180C180C180C3806F007F007180C0C1823
:104DB0000C180C180C18380CF80FE0030000000059
:104DC00000000000000000000000E003F007380EC3
:104DD0001C0C0C180C180C181C1C381EF81BE019A5
:104DE0000018000C000C1C0EF807F0010000000079
:104DF00000000000000000000000000000000000B3
:104E000000000000800180010000000000000000A0
:104E10000000000000000000800180010000000090
:104E20000000000000000000000000000000000082
:104E30000000000080018001000000000000000070
:104E4000000000000000000080018001000100015E
:104E500080000000000000000000000000000000D2
:104E600000000000000000000010001C800FE003A4
:104E7000F8001800F800E003800F001C001000008C
:104E80000000000000000000000000000000000022
:104E90000000000000000000F81F000000000000FB
:104EA000F81F0000000000000000000000000000EB
:104EB00000000000000000000000000000000000F2
:104EC000000000000000000008003800F001C007EA
:104ED000001F0018001FC007F00138000800000084
:104EE00000000000000000000000E003F80F180CB4
:104EF0000C180C180018000C000600038001C000FC
:104F0000C000C00000000000C000C00000000000A1
:104F1000000000000000000000000000E00718187A
:104F20000420C229224A114409440944094409229F
:104F30001113E20C024004201818E00700000000E2
:104F40000000000000000000000080038003C00695
:104F5000C006C006600C600C301830183018F83FDE
:104F6000F83F1C700C600C6006C006C0000000001A
:104F700000000000000000000000FC03FC0F0C0C0F
:104F80000C180C180C180C0CFC07FC0F0C180C302F
:104F90000C300C300C300C18FC1FFC07000000001B
:104FA00000000000000000000000C007F01F3838BB
:104FB0001C300C70066006000600060006000600A5
:104FC000060006600C701C30F01FE00700000000B7
:104FD00000000000000000000000FE03FE0F060EAF
:104FE0000618061806300630063006300630063041
:104FF000063006180618060EFE0FFE03000000001D
:1050000000000000000000000000FC3FFC3F0C001E
:105010000C000C000C000C00FC1FFC1F0C000C0012
:105020000C000C000C000C00FC3FFC3F00000000DA
:1050300000000000000000000000F83FF83F1800EA
:105040001800180018001800F81FF81F18001800A2
:1050500018001800180018001800180000000000C0
:1050600000000000000000000000E00FF83F3C7866
:105070000E6006E007C00300030003FE03FE03C04A
:1050800007C006C00EC03CF0F83FE00F0000000073
:10509000000000000000000000000C300C300C305C
:1050A0000C300C300C300C30FC3FFC3F0C300C3022
:1050B0000C300C300C300C300C300C300000000088
:1050C000000000000000000000008001800180015D
:1050D00080018001800180018001800180018001C8
:1050E00080018001800180018001800100000000BA
:1050F000000000000000000000000006000600069E
:10510000000600060006000600060006000600066F
:105110000006180618063807F003E001000000003A
:105120000000000000000000000006300618060C19
:10513000060606038601C60066007600DE008E01C4
:1051400006030606060C061806300660000000007E
:105150000000000000000000000018001800180007
:10516000180018001800180018001800180018007F
:105170001800180018001800F81FF81F00000000A1
:10518000000000000000000000000EE01EF01EF015
:105190001EF036D836D836D836D866CC66CC66CC33
:1051A000C6C6C6C6C6C6C6C686C386C3000000003D
:1051B000000000000000000000000C301C303C30FB
:1051C0003C306C306C30CC30CC308C310C330C3308
:1051D0000C360C360C3C0C3C0C380C30000000003B
:1051E00000000000000000000000E007F81F1C386D
:1051F0000E70066003C003C003C003C003C003C039
:1052000003C006600E701C38F81FE00700000000A5
:1052100000000000000000000000FC0FFC1F0C3824
:105220000C300C300C300C300C18FC1FFC070C0040
:105230000C000C000C000C000C000C000000000026
:1052400000000000000000000000E007F81F1C380C
:105250000E70066003E003C003C003C003C003C0B8
:1052600007E006630E3F1C3CF83FE0F700C000007B
:1052700000000000000000000000FE0FFE1F0638C6
:105280000630063006300638FE1FFE070603060607
:10529000060C0618061806300630066000000000EE
:1052A00000000000000000000000E003F80F1C0CEC
:1052B0000C180C180C001C00F803E00F001E00383E
:1052C000063006300E301C1CF80FE007000000000E
:1052D00000000000000000000000FE7FFE7F800153
:1052E00080018001800180018001800180018001B6
:1052F00080018001800180018001800100000000A8
:10530000000000000000000000000C300C300C30E9
:105310000C300C300C300C300C300C300C300C30AD
:105320000C300C300C301818F81FE007000000009B
:10533000000000000000000000000360063006309E
:1053400006300C180C180C18180C180C380E3006F7
:105350003006700760036003C001C0010000000058
:10536000000000000000000000000360C361C36192
:10537000C3616633663366336633663366336C1BEC
:105380006C1B6C1B2C1A3C1E380E380E00000000E3
:10539000000000000000000000000FE00C7018305A
:1053A0003018700C600EC00780038003C003E00655
:1053B000700C301C18180C300E6007E00000000064
:1053C0000000000000000000000003C006600C3078
:1053D0001C383818300C6006E007C00380018001DB
:1053E00080018001800180018001800100000000B7
:1053F00000000000000000000000FC7FFC7F006057
:1054000000300018000C000600038001C00060009E
:10541000300018000C000600FE7FFE7F0000000038
:1054200000000000000000000000E003E003600056
:10543000600060006000600060006000600060006C
:10544000600060006000600060006000600060005C
:105450006000E003E0030000000030003000600066
:1054600060006000C000C000C000C0018001800179
:105470008001000300030003000600060000000096
:1054800000000000000000000000E003E003000353
:1054900000030003000300030003000300030003F4
:1054A00000030003000300030003000300030003E4
:1054B0000003E003E003000000000000C001C001A1
:1054C00060036003600330063006180C180C0000FF
:1054D00000000000000000000000000000000000CC
:1054E00000000000000000000000000000000000BC
:1054F00000000000000000000000000000000000AC
:1055000000000000000000000000FFFFFFFF00009F
:10551000000000000000000000000C000C000C0067
:105520000C000C000C000000000000000000000057
:10553000000000000000000000000000000000006B
:10554000000000000000000000000000000000005B
:1055500000000000F003F8071C0C0C0C000FF00F0B
:10556000F80C0C0C0C0C1C0FF80FF01800000000CD
:1055700000000000000000000000180018001800E3
:1055800018001800D803F80F380C18181818181835
:10559000181818181818380CF80FD8030000000055
:1055A00000000000000000000000000000000000FB
:1055B00000000000C003F007300E180C180018009F
:1055C00018001800180C300EF007C003000000008F
:1055D0000000000000000000000000180018001883
:1055E00000180018C01BF01F301C181818181818C5
:1055F000181818181818301CF01FC01B00000000E5
:10560000000000000000000000000000000000009A
:1056100000000000C003F00F300C1818F81FF81F2E
:10562000180018003818301CF00FC00700000000E8
:1056300000000000000000000000800FC00FC0004C
:10564000C000C000F007F007C000C000C000C000EC
:10565000C000C000C000C000C000C00000000000CA
:10566000000000000000000000000000000000003A
:1056700000000000E00DF80F180E0C0C0C0C0C0CC8
:105680000C0C0C0C0C0C180EF80FE00D000C0C0C94
:105690001C06F807F00100000000180018001800B0
:1056A00018001800D807F80F381C18181818181800
:1056B00018181818181818181818181800000000CA
:1056C00000000000000000000000C000C00000005A
:1056D00000000000C000C000C000C000C000C0004A
:1056E000C000C000C000C000C000C000000000003A
:1056F00000000000000000000000C000C00000002A
:1057000000000000C000C000C000C000C000C00019
:10571000C000C000C000C000C000C000C000C00089
:10572000C000F8007800000000000C000C000C0025
:105730000C000C000C0C0C060C038C01CC006C0053
:10574000FC009C018C030C030C060C0C00000000F8
:1057500000000000000000000000C000C000C00009
:10576000C000C000C000C000C000C000C000C00039
:10577000C000C000C000C000C000C00000000000A9
:105780000000000000000000000000000000000019
:10579000000000007C3CFF7EC7E383C183C183C15E
:1057A00083C183C183C183C183C183C10000000061
:1057B00000000000000000000000000000000000E9
:1057C000000000009807F80F381C1818181818184F
:1057D00018181818181818181818181800000000A9
:1057E00000000000000000000000000000000000B9
:1057F00000000000C003F00F300C1818181818181B
:10580000181818181818300CF00FC003000000000A
:105810000000000000000000000000000000000088
:1058200000000000D803F80F380C181818181818C2
:10583000181818181818380CF80FD8031800180082
:105840001800180018000000000000000000000010
:1058500000000000C01BF01F301C18181818181882
:10586000181818181818301CF01FC01B0018001842
:1058700000180018001800000000000000000000E0
:1058800000000000B007F00370003000300030006E
:1058900030003000300030003000300000000000E8
:1058A00000000000000000000000000000000000F8
:1058B00000000000E003F003380E180C3800F0037D
:1058C000C007000C180C380EF007E00300000000C1
:1058D0000000000000000000000000008000C00088
:1058E000C000C000F007F007C000C000C000C0004A
:1058F000C000C000C000C000C0078007000000005A
:105900000000000000000000000000000000000097
:105910000000000018181818181818181818181867
:10592000181818181818381CF01FE019000000008B
:105930000000000000000000000000000000000067
:10594000000000000C18180C180C180C300630065B
:105950003006600360036003C001C0010000000066
:105960000000000000000000000000000000000037
:1059700000000000C141C141C361636363636363AD
:105980003636363636361C1C1C1C1C1C000000002B
:105990000000000000000000000000000000000007
:1059A000000000001C38381C300C6006C003C00327
:1059B000C003C0036006300C381C1C380000000017
:1059C00000000000000000000000000000000000D7
:1059D000000000001830301830187018600C600C8F
:1059E000E00CC006C00680038003800380018001B4
:1059F000C001F00070000000000000000000000086
:105A000000000000FC1FFC1F000C000600038001CA
:105A1000C000600030001800FC1FFC1F00000000E8
:105A20000000000000000000000000038001C00032
:105A3000C000C000C000C000C000600060003000B6
:105A400060004000C000C000C000C000C000C00036
:105A5000800100030000000000008001800180013F
:105A6000800180018001800180018001800180012E
:105A7000800180018001800180018001800180011E
:105A8000800180018001000000006000C000C001B2
:105A90008001800180018001800100030003000675
:105AA00000030001800180018001800180018001EC
:105AB000C0006000000000000000000000000000C6
:105AC0000000000000000000F010F81F080F0000A8
:105AD00000000000000000000000000000000000C6
